{
  "_format": "hh-sol-artifact-1",
  "contractName": "NFTMarket",
  "sourceName": "contracts/NFTMarket.sol",
  "abi": [
    {
      "inputs": [],
      "stateMutability": "nonpayable",
      "type": "constructor"
    },
    {
      "anonymous": false,
      "inputs": [
        {
          "indexed": true,
          "internalType": "uint256",
          "name": "itemId",
          "type": "uint256"
        },
        {
          "indexed": true,
          "internalType": "address",
          "name": "nftContract",
          "type": "address"
        },
        {
          "indexed": true,
          "internalType": "uint256",
          "name": "tokenId",
          "type": "uint256"
        },
        {
          "indexed": false,
          "internalType": "address",
          "name": "seller",
          "type": "address"
        },
        {
          "indexed": false,
          "internalType": "address",
          "name": "owner",
          "type": "address"
        },
        {
          "indexed": false,
          "internalType": "uint256",
          "name": "price",
          "type": "uint256"
        },
        {
          "indexed": false,
          "internalType": "bool",
          "name": "sold",
          "type": "bool"
        }
      ],
      "name": "MarketItemCreated",
      "type": "event"
    },
    {
      "inputs": [
        {
          "internalType": "address",
          "name": "nftContract",
          "type": "address"
        },
        {
          "internalType": "uint256",
          "name": "tokenId",
          "type": "uint256"
        },
        {
          "internalType": "uint256",
          "name": "price",
          "type": "uint256"
        }
      ],
      "name": "createMarketItem",
      "outputs": [],
      "stateMutability": "payable",
      "type": "function"
    },
    {
      "inputs": [
        {
          "internalType": "address",
          "name": "nftContract",
          "type": "address"
        },
        {
          "internalType": "uint256",
          "name": "itemId",
          "type": "uint256"
        }
      ],
      "name": "createMarketSale",
      "outputs": [],
      "stateMutability": "payable",
      "type": "function"
    },
    {
      "inputs": [],
      "name": "fetchMyItemsCreated",
      "outputs": [
        {
          "components": [
            {
              "internalType": "uint256",
              "name": "itemId",
              "type": "uint256"
            },
            {
              "internalType": "address",
              "name": "nftContract",
              "type": "address"
            },
            {
              "internalType": "uint256",
              "name": "tokenId",
              "type": "uint256"
            },
            {
              "internalType": "address payable",
              "name": "seller",
              "type": "address"
            },
            {
              "internalType": "address payable",
              "name": "owner",
              "type": "address"
            },
            {
              "internalType": "uint256",
              "name": "price",
              "type": "uint256"
            },
            {
              "internalType": "bool",
              "name": "sold",
              "type": "bool"
            }
          ],
          "internalType": "struct NFTMarket.MarketItem[]",
          "name": "",
          "type": "tuple[]"
        }
      ],
      "stateMutability": "view",
      "type": "function"
    },
    {
      "inputs": [],
      "name": "fetchMyPurchasedNFTs",
      "outputs": [
        {
          "components": [
            {
              "internalType": "uint256",
              "name": "itemId",
              "type": "uint256"
            },
            {
              "internalType": "address",
              "name": "nftContract",
              "type": "address"
            },
            {
              "internalType": "uint256",
              "name": "tokenId",
              "type": "uint256"
            },
            {
              "internalType": "address payable",
              "name": "seller",
              "type": "address"
            },
            {
              "internalType": "address payable",
              "name": "owner",
              "type": "address"
            },
            {
              "internalType": "uint256",
              "name": "price",
              "type": "uint256"
            },
            {
              "internalType": "bool",
              "name": "sold",
              "type": "bool"
            }
          ],
          "internalType": "struct NFTMarket.MarketItem[]",
          "name": "",
          "type": "tuple[]"
        }
      ],
      "stateMutability": "view",
      "type": "function"
    },
    {
      "inputs": [],
      "name": "fetchMyUnsoldNFTs",
      "outputs": [
        {
          "components": [
            {
              "internalType": "uint256",
              "name": "itemId",
              "type": "uint256"
            },
            {
              "internalType": "address",
              "name": "nftContract",
              "type": "address"
            },
            {
              "internalType": "uint256",
              "name": "tokenId",
              "type": "uint256"
            },
            {
              "internalType": "address payable",
              "name": "seller",
              "type": "address"
            },
            {
              "internalType": "address payable",
              "name": "owner",
              "type": "address"
            },
            {
              "internalType": "uint256",
              "name": "price",
              "type": "uint256"
            },
            {
              "internalType": "bool",
              "name": "sold",
              "type": "bool"
            }
          ],
          "internalType": "struct NFTMarket.MarketItem[]",
          "name": "",
          "type": "tuple[]"
        }
      ],
      "stateMutability": "view",
      "type": "function"
    },
    {
      "inputs": [],
      "name": "fetchRemainingMarketItems",
      "outputs": [
        {
          "components": [
            {
              "internalType": "uint256",
              "name": "itemId",
              "type": "uint256"
            },
            {
              "internalType": "address",
              "name": "nftContract",
              "type": "address"
            },
            {
              "internalType": "uint256",
              "name": "tokenId",
              "type": "uint256"
            },
            {
              "internalType": "address payable",
              "name": "seller",
              "type": "address"
            },
            {
              "internalType": "address payable",
              "name": "owner",
              "type": "address"
            },
            {
              "internalType": "uint256",
              "name": "price",
              "type": "uint256"
            },
            {
              "internalType": "bool",
              "name": "sold",
              "type": "bool"
            }
          ],
          "internalType": "struct NFTMarket.MarketItem[]",
          "name": "",
          "type": "tuple[]"
        }
      ],
      "stateMutability": "view",
      "type": "function"
    },
    {
      "inputs": [],
      "name": "getListingPrice",
      "outputs": [
        {
          "internalType": "uint256",
          "name": "",
          "type": "uint256"
        }
      ],
      "stateMutability": "view",
      "type": "function"
    },
    {
      "inputs": [
        {
          "internalType": "uint256",
          "name": "inputPrice",
          "type": "uint256"
        }
      ],
      "name": "setListingPrice",
      "outputs": [
        {
          "internalType": "uint256",
          "name": "",
          "type": "uint256"
        }
      ],
      "stateMutability": "nonpayable",
      "type": "function"
    }
  ],
  "bytecode": "0x60806040526658d15e1762800060045534801561001b57600080fd5b506001600055600380546001600160a01b03191633179055610ea3806100426000396000f3fe60806040526004361061007b5760003560e01c806358eb2df51161004e57806358eb2df5146100f05780637c726b6914610105578063c23b139e14610125578063d66a0fa41461013857600080fd5b806312e85585146100805780632924a3a8146100a45780633782985c146100c65780633bec7b84146100db575b600080fd5b34801561008c57600080fd5b506004545b6040519081526020015b60405180910390f35b3480156100b057600080fd5b506100b961014d565b60405161009b9190610d91565b3480156100d257600080fd5b506100b9610343565b3480156100e757600080fd5b506100b96104b5565b6101036100fe366004610d47565b610665565b005b34801561011157600080fd5b50610091610120366004610d79565b6108fd565b610103610133366004610d1e565b61092a565b34801561014457600080fd5b506100b9610b16565b6060600061015a60015490565b9050600060015b8281116101c8576000818152600560205260409020600301546001600160a01b0316331480156101a3575060008181526005602052604090206006015460ff16155b156101b657816101b281610e3c565b9250505b806101c081610e3c565b915050610161565b5060008167ffffffffffffffff8111156101f257634e487b7160e01b600052604160045260246000fd5b60405190808252806020026020018201604052801561022b57816020015b610218610cc6565b8152602001906001900390816102105790505b509050600060015b848111610339576000818152600560205260409020600301546001600160a01b031633148015610275575060008181526005602052604090206006015460ff16155b1561032757600081815260056020818152604092839020835160e0810185528154815260018201546001600160a01b0390811693820193909352600282015494810194909452600381015482166060850152600481015490911660808401529081015460a08301526006015460ff16151560c0820152835184908490811061030d57634e487b7160e01b600052603260045260246000fd5b6020026020010181905250818061032390610e3c565b9250505b8061033181610e3c565b915050610233565b5090949350505050565b6060600061035060015490565b9050600061035d60025490565b60015461036a9190610e25565b905060008167ffffffffffffffff81111561039557634e487b7160e01b600052604160045260246000fd5b6040519080825280602002602001820160405280156103ce57816020015b6103bb610cc6565b8152602001906001900390816103b35790505b509050600060015b8481116103395760008181526005602052604090206006015460ff166104a357600081815260056020818152604092839020835160e0810185528154815260018201546001600160a01b0390811693820193909352600282015494810194909452600381015482166060850152600481015490911660808401529081015460a08301526006015460ff16151560c0820152835184908490811061048957634e487b7160e01b600052603260045260246000fd5b6020026020010181905250818061049f90610e3c565b9250505b806104ad81610e3c565b9150506103d6565b606060006104c260015490565b9050600060015b828111610512576000818152600560205260409020600401546001600160a01b031633141561050057816104fc81610e3c565b9250505b8061050a81610e3c565b9150506104c9565b5060008167ffffffffffffffff81111561053c57634e487b7160e01b600052604160045260246000fd5b60405190808252806020026020018201604052801561057557816020015b610562610cc6565b81526020019060019003908161055a5790505b509050600060015b848111610339576000818152600560205260409020600401546001600160a01b031633141561065357600081815260056020818152604092839020835160e0810185528154815260018201546001600160a01b0390811693820193909352600282015494810194909452600381015482166060850152600481015490911660808401529081015460a08301526006015460ff16151560c0820152835184908490811061063957634e487b7160e01b600052603260045260246000fd5b6020026020010181905250818061064f90610e3c565b9250505b8061065d81610e3c565b91505061057d565b600260005414156106bd5760405162461bcd60e51b815260206004820152601f60248201527f5265656e7472616e637947756172643a207265656e7472616e742063616c6c0060448201526064015b60405180910390fd5b6002600055806107075760405162461bcd60e51b815260206004820152601560248201527405072696365206d7573742062652061626f7665203605c1b60448201526064016106b4565b60045434146107645760405162461bcd60e51b8152602060048201526024808201527f5072696365206d75737420626520657175616c20746f206c697374696e6720706044820152637269636560e01b60648201526084016106b4565b610772600180546001019055565b600061077d60015490565b6040805160e0810182528281526001600160a01b0387811660208084018281528486018a8152336060870181815260006080890181815260a08a018e815260c08b018381528d8452600598899052928c90209a518b55955160018b018054918b166001600160a01b0319928316179055945160028b0155915160038a018054918a1691861691909117905590516004808a01805492909916919094161790965591519286019290925592516006909401805494151560ff199095169490941790935592516323b872dd60e01b81529182015230602482015260448101869052919250906323b872dd90606401600060405180830381600087803b15801561088357600080fd5b505af1158015610897573d6000803e3d6000fd5b505060408051338152600060208201819052818301879052606082015290518693506001600160a01b038816925084917f045dfa01dcba2b36aba1d3dc4a874f4b0c5d2fbeb8d2c4b34a7d88c8d8f929d1919081900360800190a4505060016000555050565b60003330148061091757506003546001600160a01b031633145b156109225760048290555b505060045490565b6002600054141561097d5760405162461bcd60e51b815260206004820152601f60248201527f5265656e7472616e637947756172643a207265656e7472616e742063616c6c0060448201526064016106b4565b60026000818155828152600560208190526040909120908101549101543482146109e15760405162461bcd60e51b815260206004820152601560248201527429b2b732103a3432903934b3b43a10383934b1b29760591b60448201526064016106b4565b60008381526005602052604090206004810180546001600160a01b03191633179055600601805460ff19166001179055610a1f600280546001019055565b6000838152600560205260408082206003015490516001600160a01b03909116913480156108fc02929091818181858888f19350505050158015610a67573d6000803e3d6000fd5b506040516323b872dd60e01b8152306004820152336024820152604481018290526001600160a01b038516906323b872dd90606401600060405180830381600087803b158015610ab657600080fd5b505af1158015610aca573d6000803e3d6000fd5b50506003546004546040516001600160a01b03909216935080156108fc029250906000818181858888f19350505050158015610b0a573d6000803e3d6000fd5b50506001600055505050565b60606000610b2360015490565b9050600060015b828111610b73576000818152600560205260409020600301546001600160a01b0316331415610b615781610b5d81610e3c565b9250505b80610b6b81610e3c565b915050610b2a565b5060008167ffffffffffffffff811115610b9d57634e487b7160e01b600052604160045260246000fd5b604051908082528060200260200182016040528015610bd657816020015b610bc3610cc6565b815260200190600190039081610bbb5790505b509050600060015b848111610339576000818152600560205260409020600301546001600160a01b0316331415610cb457600081815260056020818152604092839020835160e0810185528154815260018201546001600160a01b0390811693820193909352600282015494810194909452600381015482166060850152600481015490911660808401529081015460a08301526006015460ff16151560c08201528351849084908110610c9a57634e487b7160e01b600052603260045260246000fd5b60200260200101819052508180610cb090610e3c565b9250505b80610cbe81610e3c565b915050610bde565b6040805160e081018252600080825260208201819052918101829052606081018290526080810182905260a0810182905260c081019190915290565b80356001600160a01b0381168114610d1957600080fd5b919050565b60008060408385031215610d30578182fd5b610d3983610d02565b946020939093013593505050565b600080600060608486031215610d5b578081fd5b610d6484610d02565b95602085013595506040909401359392505050565b600060208284031215610d8a578081fd5b5035919050565b602080825282518282018190526000919060409081850190868401855b82811015610e1857815180518552868101516001600160a01b039081168887015286820151878701526060808301518216908701526080808301519091169086015260a0808201519086015260c09081015115159085015260e09093019290850190600101610dae565b5091979650505050505050565b600082821015610e3757610e37610e57565b500390565b6000600019821415610e5057610e50610e57565b5060010190565b634e487b7160e01b600052601160045260246000fdfea2646970667358221220d03b4f2eaab97b84a18e93c7196efe9a1eb0fc0ca63759993ab55dccff597d0d64736f6c63430008040033",
  "linkReferences": {},
  "deployedLinkReferences": {}
}