{
  "_format": "hh-sol-artifact-1",
  "contractName": "NFTToken",
  "sourceName": "contracts/NFTToken.sol",
  "abi": [
    {
      "inputs": [
        {
          "internalType": "address",
          "name": "marketplaceAddress",
          "type": "address"
        }
      ],
      "stateMutability": "nonpayable",
      "type": "constructor"
    },
    {
      "anonymous": false,
      "inputs": [
        {
          "indexed": true,
          "internalType": "address",
          "name": "owner",
          "type": "address"
        },
        {
          "indexed": true,
          "internalType": "address",
          "name": "approved",
          "type": "address"
        },
        {
          "indexed": true,
          "internalType": "uint256",
          "name": "tokenId",
          "type": "uint256"
        }
      ],
      "name": "Approval",
      "type": "event"
    },
    {
      "anonymous": false,
      "inputs": [
        {
          "indexed": true,
          "internalType": "address",
          "name": "owner",
          "type": "address"
        },
        {
          "indexed": true,
          "internalType": "address",
          "name": "operator",
          "type": "address"
        },
        {
          "indexed": false,
          "internalType": "bool",
          "name": "approved",
          "type": "bool"
        }
      ],
      "name": "ApprovalForAll",
      "type": "event"
    },
    {
      "anonymous": false,
      "inputs": [
        {
          "indexed": true,
          "internalType": "address",
          "name": "from",
          "type": "address"
        },
        {
          "indexed": true,
          "internalType": "address",
          "name": "to",
          "type": "address"
        },
        {
          "indexed": true,
          "internalType": "uint256",
          "name": "tokenId",
          "type": "uint256"
        }
      ],
      "name": "Transfer",
      "type": "event"
    },
    {
      "inputs": [
        {
          "internalType": "address",
          "name": "to",
          "type": "address"
        },
        {
          "internalType": "uint256",
          "name": "tokenId",
          "type": "uint256"
        }
      ],
      "name": "approve",
      "outputs": [],
      "stateMutability": "nonpayable",
      "type": "function"
    },
    {
      "inputs": [
        {
          "internalType": "address",
          "name": "owner",
          "type": "address"
        }
      ],
      "name": "balanceOf",
      "outputs": [
        {
          "internalType": "uint256",
          "name": "",
          "type": "uint256"
        }
      ],
      "stateMutability": "view",
      "type": "function"
    },
    {
      "inputs": [
        {
          "internalType": "string",
          "name": "tokenURI",
          "type": "string"
        }
      ],
      "name": "createToken",
      "outputs": [
        {
          "internalType": "uint256",
          "name": "",
          "type": "uint256"
        }
      ],
      "stateMutability": "nonpayable",
      "type": "function"
    },
    {
      "inputs": [
        {
          "internalType": "uint256",
          "name": "tokenId",
          "type": "uint256"
        }
      ],
      "name": "getApproved",
      "outputs": [
        {
          "internalType": "address",
          "name": "",
          "type": "address"
        }
      ],
      "stateMutability": "view",
      "type": "function"
    },
    {
      "inputs": [
        {
          "internalType": "address",
          "name": "owner",
          "type": "address"
        },
        {
          "internalType": "address",
          "name": "operator",
          "type": "address"
        }
      ],
      "name": "isApprovedForAll",
      "outputs": [
        {
          "internalType": "bool",
          "name": "",
          "type": "bool"
        }
      ],
      "stateMutability": "view",
      "type": "function"
    },
    {
      "inputs": [],
      "name": "name",
      "outputs": [
        {
          "internalType": "string",
          "name": "",
          "type": "string"
        }
      ],
      "stateMutability": "view",
      "type": "function"
    },
    {
      "inputs": [
        {
          "internalType": "uint256",
          "name": "tokenId",
          "type": "uint256"
        }
      ],
      "name": "ownerOf",
      "outputs": [
        {
          "internalType": "address",
          "name": "",
          "type": "address"
        }
      ],
      "stateMutability": "view",
      "type": "function"
    },
    {
      "inputs": [
        {
          "internalType": "address",
          "name": "from",
          "type": "address"
        },
        {
          "internalType": "address",
          "name": "to",
          "type": "address"
        },
        {
          "internalType": "uint256",
          "name": "tokenId",
          "type": "uint256"
        }
      ],
      "name": "safeTransferFrom",
      "outputs": [],
      "stateMutability": "nonpayable",
      "type": "function"
    },
    {
      "inputs": [
        {
          "internalType": "address",
          "name": "from",
          "type": "address"
        },
        {
          "internalType": "address",
          "name": "to",
          "type": "address"
        },
        {
          "internalType": "uint256",
          "name": "tokenId",
          "type": "uint256"
        },
        {
          "internalType": "bytes",
          "name": "data",
          "type": "bytes"
        }
      ],
      "name": "safeTransferFrom",
      "outputs": [],
      "stateMutability": "nonpayable",
      "type": "function"
    },
    {
      "inputs": [
        {
          "internalType": "address",
          "name": "operator",
          "type": "address"
        },
        {
          "internalType": "bool",
          "name": "approved",
          "type": "bool"
        }
      ],
      "name": "setApprovalForAll",
      "outputs": [],
      "stateMutability": "nonpayable",
      "type": "function"
    },
    {
      "inputs": [
        {
          "internalType": "bytes4",
          "name": "interfaceId",
          "type": "bytes4"
        }
      ],
      "name": "supportsInterface",
      "outputs": [
        {
          "internalType": "bool",
          "name": "",
          "type": "bool"
        }
      ],
      "stateMutability": "view",
      "type": "function"
    },
    {
      "inputs": [],
      "name": "symbol",
      "outputs": [
        {
          "internalType": "string",
          "name": "",
          "type": "string"
        }
      ],
      "stateMutability": "view",
      "type": "function"
    },
    {
      "inputs": [
        {
          "internalType": "uint256",
          "name": "tokenId",
          "type": "uint256"
        }
      ],
      "name": "tokenURI",
      "outputs": [
        {
          "internalType": "string",
          "name": "",
          "type": "string"
        }
      ],
      "stateMutability": "view",
      "type": "function"
    },
    {
      "inputs": [
        {
          "internalType": "address",
          "name": "from",
          "type": "address"
        },
        {
          "internalType": "address",
          "name": "to",
          "type": "address"
        },
        {
          "internalType": "uint256",
          "name": "tokenId",
          "type": "uint256"
        }
      ],
      "name": "transferFrom",
      "outputs": [],
      "stateMutability": "nonpayable",
      "type": "function"
    }
  ],
  "bytecode": "0x60806040523480156200001157600080fd5b506040516200177d3803806200177d83398101604081905262000034916200016a565b604080518082018252600c81526b4e6966747920546f6b656e7360a01b6020808301918252835180850190945260048452634946545960e01b9084015281519192916200008491600091620000c4565b5080516200009a906001906020840190620000c4565b5050600880546001600160a01b0319166001600160a01b03939093169290921790915550620001d7565b828054620000d2906200019a565b90600052602060002090601f016020900481019282620000f6576000855562000141565b82601f106200011157805160ff191683800117855562000141565b8280016001018555821562000141579182015b828111156200014157825182559160200191906001019062000124565b506200014f92915062000153565b5090565b5b808211156200014f576000815560010162000154565b6000602082840312156200017c578081fd5b81516001600160a01b038116811462000193578182fd5b9392505050565b600181811c90821680620001af57607f821691505b60208210811415620001d157634e487b7160e01b600052602260045260246000fd5b50919050565b61159680620001e76000396000f3fe608060405234801561001057600080fd5b50600436106100ea5760003560e01c80636352211e1161008c578063a22cb46511610066578063a22cb465146101e1578063b88d4fde146101f4578063c87b56dd14610207578063e985e9c51461021a57600080fd5b80636352211e146101b357806370a08231146101c657806395d89b41146101d957600080fd5b8063095ea7b3116100c8578063095ea7b31461015757806323b872dd1461016c57806342842e0e1461017f57806345576f941461019257600080fd5b806301ffc9a7146100ef57806306fdde0314610117578063081812fc1461012c575b600080fd5b6101026100fd36600461124e565b610256565b60405190151581526020015b60405180910390f35b61011f6102a8565b60405161010e919061137c565b61013f61013a3660046112cc565b61033a565b6040516001600160a01b03909116815260200161010e565b61016a610165366004611225565b610361565b005b61016a61017a366004611137565b61047c565b61016a61018d366004611137565b6104ad565b6101a56101a0366004611286565b6104c8565b60405190815260200161010e565b61013f6101c13660046112cc565b610510565b6101a56101d43660046110eb565b610570565b61011f6105f6565b61016a6101ef3660046111eb565b610605565b61016a610202366004611172565b610614565b61011f6102153660046112cc565b61064c565b610102610228366004611105565b6001600160a01b03918216600090815260056020908152604080832093909416825291909152205460ff1690565b60006001600160e01b031982166380ac58cd60e01b148061028757506001600160e01b03198216635b5e139f60e01b145b806102a257506301ffc9a760e01b6001600160e01b03198316145b92915050565b6060600080546102b79061149e565b80601f01602080910402602001604051908101604052809291908181526020018280546102e39061149e565b80156103305780601f1061030557610100808354040283529160200191610330565b820191906000526020600020905b81548152906001019060200180831161031357829003601f168201915b5050505050905090565b60006103458261075d565b506000908152600460205260409020546001600160a01b031690565b600061036c82610510565b9050806001600160a01b0316836001600160a01b031614156103df5760405162461bcd60e51b815260206004820152602160248201527f4552433732313a20617070726f76616c20746f2063757272656e74206f776e656044820152603960f91b60648201526084015b60405180910390fd5b336001600160a01b03821614806103fb57506103fb8133610228565b61046d5760405162461bcd60e51b815260206004820152603e60248201527f4552433732313a20617070726f76652063616c6c6572206973206e6f7420746f60448201527f6b656e206f776e6572206e6f7220617070726f76656420666f7220616c6c000060648201526084016103d6565b61047783836107bf565b505050565b610486338261082d565b6104a25760405162461bcd60e51b81526004016103d6906113e1565b6104778383836108ab565b61047783838360405180602001604052806000815250610614565b60006104d8600780546001019055565b60006104e360075490565b90506104ef3382610a47565b6104f98184610b89565b6008546102a2906001600160a01b03166001610605565b6000818152600260205260408120546001600160a01b0316806102a25760405162461bcd60e51b8152602060048201526018602482015277115490cdcc8c4e881a5b9d985b1a59081d1bdad95b88125160421b60448201526064016103d6565b60006001600160a01b0382166105da5760405162461bcd60e51b815260206004820152602960248201527f4552433732313a2061646472657373207a65726f206973206e6f7420612076616044820152683634b21037bbb732b960b91b60648201526084016103d6565b506001600160a01b031660009081526003602052604090205490565b6060600180546102b79061149e565b610610338383610c23565b5050565b61061e338361082d565b61063a5760405162461bcd60e51b81526004016103d6906113e1565b61064684848484610cf2565b50505050565b60606106578261075d565b600082815260066020526040812080546106709061149e565b80601f016020809104026020016040519081016040528092919081815260200182805461069c9061149e565b80156106e95780601f106106be576101008083540402835291602001916106e9565b820191906000526020600020905b8154815290600101906020018083116106cc57829003601f168201915b50505050509050600061070760408051602081019091526000815290565b905080516000141561071a575092915050565b81511561074c578082604051602001610734929190611310565b60405160208183030381529060405292505050919050565b61075584610d25565b949350505050565b6000818152600260205260409020546001600160a01b03166107bc5760405162461bcd60e51b8152602060048201526018602482015277115490cdcc8c4e881a5b9d985b1a59081d1bdad95b88125160421b60448201526064016103d6565b50565b600081815260046020526040902080546001600160a01b0319166001600160a01b03841690811790915581906107f482610510565b6001600160a01b03167f8c5be1e5ebec7d5bd14f71427d1e84f3dd0314c0f7b2291e5b200ac8c7c3b92560405160405180910390a45050565b60008061083983610510565b9050806001600160a01b0316846001600160a01b0316148061088057506001600160a01b0380821660009081526005602090815260408083209388168352929052205460ff165b806107555750836001600160a01b03166108998461033a565b6001600160a01b031614949350505050565b826001600160a01b03166108be82610510565b6001600160a01b0316146109225760405162461bcd60e51b815260206004820152602560248201527f4552433732313a207472616e736665722066726f6d20696e636f72726563742060448201526437bbb732b960d91b60648201526084016103d6565b6001600160a01b0382166109845760405162461bcd60e51b8152602060048201526024808201527f4552433732313a207472616e7366657220746f20746865207a65726f206164646044820152637265737360e01b60648201526084016103d6565b61098f6000826107bf565b6001600160a01b03831660009081526003602052604081208054600192906109b890849061145b565b90915550506001600160a01b03821660009081526003602052604081208054600192906109e690849061142f565b909155505060008181526002602052604080822080546001600160a01b0319166001600160a01b0386811691821790925591518493918716917fddf252ad1be2c89b69c2b068fc378daa952ba7f163c4a11628f55a4df523b3ef91a4505050565b6001600160a01b038216610a9d5760405162461bcd60e51b815260206004820181905260248201527f4552433732313a206d696e7420746f20746865207a65726f206164647265737360448201526064016103d6565b6000818152600260205260409020546001600160a01b031615610b025760405162461bcd60e51b815260206004820152601c60248201527f4552433732313a20746f6b656e20616c7265616479206d696e7465640000000060448201526064016103d6565b6001600160a01b0382166000908152600360205260408120805460019290610b2b90849061142f565b909155505060008181526002602052604080822080546001600160a01b0319166001600160a01b03861690811790915590518392907fddf252ad1be2c89b69c2b068fc378daa952ba7f163c4a11628f55a4df523b3ef908290a45050565b6000828152600260205260409020546001600160a01b0316610c045760405162461bcd60e51b815260206004820152602e60248201527f45524337323155524953746f726167653a2055524920736574206f66206e6f6e60448201526d32bc34b9ba32b73a103a37b5b2b760911b60648201526084016103d6565b6000828152600660209081526040909120825161047792840190610fc0565b816001600160a01b0316836001600160a01b03161415610c855760405162461bcd60e51b815260206004820152601960248201527f4552433732313a20617070726f766520746f2063616c6c65720000000000000060448201526064016103d6565b6001600160a01b03838116600081815260056020908152604080832094871680845294825291829020805460ff191686151590811790915591519182527f17307eab39ab6107e8899845ad3d59bd9653f200f220920489ca2b5937696c31910160405180910390a3505050565b610cfd8484846108ab565b610d0984848484610d99565b6106465760405162461bcd60e51b81526004016103d69061138f565b6060610d308261075d565b6000610d4760408051602081019091526000815290565b90506000815111610d675760405180602001604052806000815250610d92565b80610d7184610ea6565b604051602001610d82929190611310565b6040516020818303038152906040525b9392505050565b60006001600160a01b0384163b15610e9b57604051630a85bd0160e11b81526001600160a01b0385169063150b7a0290610ddd90339089908890889060040161133f565b602060405180830381600087803b158015610df757600080fd5b505af1925050508015610e27575060408051601f3d908101601f19168201909252610e249181019061126a565b60015b610e81573d808015610e55576040519150601f19603f3d011682016040523d82523d6000602084013e610e5a565b606091505b508051610e795760405162461bcd60e51b81526004016103d69061138f565b805181602001fd5b6001600160e01b031916630a85bd0160e11b149050610755565b506001949350505050565b606081610eca5750506040805180820190915260018152600360fc1b602082015290565b8160005b8115610ef45780610ede816114d9565b9150610eed9050600a83611447565b9150610ece565b60008167ffffffffffffffff811115610f1d57634e487b7160e01b600052604160045260246000fd5b6040519080825280601f01601f191660200182016040528015610f47576020820181803683370190505b5090505b841561075557610f5c60018361145b565b9150610f69600a866114f4565b610f7490603061142f565b60f81b818381518110610f9757634e487b7160e01b600052603260045260246000fd5b60200101906001600160f81b031916908160001a905350610fb9600a86611447565b9450610f4b565b828054610fcc9061149e565b90600052602060002090601f016020900481019282610fee5760008555611034565b82601f1061100757805160ff1916838001178555611034565b82800160010185558215611034579182015b82811115611034578251825591602001919060010190611019565b50611040929150611044565b5090565b5b808211156110405760008155600101611045565b600067ffffffffffffffff8084111561107457611074611534565b604051601f8501601f19908116603f0116810190828211818310171561109c5761109c611534565b816040528093508581528686860111156110b557600080fd5b858560208301376000602087830101525050509392505050565b80356001600160a01b03811681146110e657600080fd5b919050565b6000602082840312156110fc578081fd5b610d92826110cf565b60008060408385031215611117578081fd5b611120836110cf565b915061112e602084016110cf565b90509250929050565b60008060006060848603121561114b578081fd5b611154846110cf565b9250611162602085016110cf565b9150604084013590509250925092565b60008060008060808587031215611187578081fd5b611190856110cf565b935061119e602086016110cf565b925060408501359150606085013567ffffffffffffffff8111156111c0578182fd5b8501601f810187136111d0578182fd5b6111df87823560208401611059565b91505092959194509250565b600080604083850312156111fd578182fd5b611206836110cf565b91506020830135801515811461121a578182fd5b809150509250929050565b60008060408385031215611237578182fd5b611240836110cf565b946020939093013593505050565b60006020828403121561125f578081fd5b8135610d928161154a565b60006020828403121561127b578081fd5b8151610d928161154a565b600060208284031215611297578081fd5b813567ffffffffffffffff8111156112ad578182fd5b8201601f810184136112bd578182fd5b61075584823560208401611059565b6000602082840312156112dd578081fd5b5035919050565b600081518084526112fc816020860160208601611472565b601f01601f19169290920160200192915050565b60008351611322818460208801611472565b835190830190611336818360208801611472565b01949350505050565b6001600160a01b0385811682528416602082015260408101839052608060608201819052600090611372908301846112e4565b9695505050505050565b602081526000610d9260208301846112e4565b60208082526032908201527f4552433732313a207472616e7366657220746f206e6f6e20455243373231526560408201527131b2b4bb32b91034b6b83632b6b2b73a32b960711b606082015260800190565b6020808252602e908201527f4552433732313a2063616c6c6572206973206e6f7420746f6b656e206f776e6560408201526d1c881b9bdc88185c1c1c9bdd995960921b606082015260800190565b6000821982111561144257611442611508565b500190565b6000826114565761145661151e565b500490565b60008282101561146d5761146d611508565b500390565b60005b8381101561148d578181015183820152602001611475565b838111156106465750506000910152565b600181811c908216806114b257607f821691505b602082108114156114d357634e487b7160e01b600052602260045260246000fd5b50919050565b60006000198214156114ed576114ed611508565b5060010190565b6000826115035761150361151e565b500690565b634e487b7160e01b600052601160045260246000fd5b634e487b7160e01b600052601260045260246000fd5b634e487b7160e01b600052604160045260246000fd5b6001600160e01b0319811681146107bc57600080fdfea2646970667358221220ac5ff9918b784f35633f76e06a3ef08225302627e45015a6d6cea32a98368cd164736f6c63430008040033",
  "linkReferences": {},
  "deployedLinkReferences": {}
}