{
  "_format": "hh-sol-artifact-1",
  "contractName": "OtherNFTToken",
  "sourceName": "contracts/OtherNFTToken.sol",
  "abi": [
    {
      "inputs": [],
      "stateMutability": "nonpayable",
      "type": "constructor"
    },
    {
      "anonymous": false,
      "inputs": [
        {
          "indexed": true,
          "internalType": "address",
          "name": "owner",
          "type": "address"
        },
        {
          "indexed": true,
          "internalType": "address",
          "name": "approved",
          "type": "address"
        },
        {
          "indexed": true,
          "internalType": "uint256",
          "name": "tokenId",
          "type": "uint256"
        }
      ],
      "name": "Approval",
      "type": "event"
    },
    {
      "anonymous": false,
      "inputs": [
        {
          "indexed": true,
          "internalType": "address",
          "name": "owner",
          "type": "address"
        },
        {
          "indexed": true,
          "internalType": "address",
          "name": "operator",
          "type": "address"
        },
        {
          "indexed": false,
          "internalType": "bool",
          "name": "approved",
          "type": "bool"
        }
      ],
      "name": "ApprovalForAll",
      "type": "event"
    },
    {
      "anonymous": false,
      "inputs": [
        {
          "indexed": true,
          "internalType": "address",
          "name": "from",
          "type": "address"
        },
        {
          "indexed": true,
          "internalType": "address",
          "name": "to",
          "type": "address"
        },
        {
          "indexed": true,
          "internalType": "uint256",
          "name": "tokenId",
          "type": "uint256"
        }
      ],
      "name": "Transfer",
      "type": "event"
    },
    {
      "inputs": [
        {
          "internalType": "address",
          "name": "to",
          "type": "address"
        },
        {
          "internalType": "uint256",
          "name": "tokenId",
          "type": "uint256"
        }
      ],
      "name": "approve",
      "outputs": [],
      "stateMutability": "nonpayable",
      "type": "function"
    },
    {
      "inputs": [
        {
          "internalType": "address",
          "name": "owner",
          "type": "address"
        }
      ],
      "name": "balanceOf",
      "outputs": [
        {
          "internalType": "uint256",
          "name": "",
          "type": "uint256"
        }
      ],
      "stateMutability": "view",
      "type": "function"
    },
    {
      "inputs": [
        {
          "internalType": "string",
          "name": "tokenURI",
          "type": "string"
        }
      ],
      "name": "createToken",
      "outputs": [],
      "stateMutability": "nonpayable",
      "type": "function"
    },
    {
      "inputs": [
        {
          "internalType": "uint256",
          "name": "tokenId",
          "type": "uint256"
        }
      ],
      "name": "getApproved",
      "outputs": [
        {
          "internalType": "address",
          "name": "",
          "type": "address"
        }
      ],
      "stateMutability": "view",
      "type": "function"
    },
    {
      "inputs": [
        {
          "internalType": "address",
          "name": "owner",
          "type": "address"
        },
        {
          "internalType": "address",
          "name": "operator",
          "type": "address"
        }
      ],
      "name": "isApprovedForAll",
      "outputs": [
        {
          "internalType": "bool",
          "name": "",
          "type": "bool"
        }
      ],
      "stateMutability": "view",
      "type": "function"
    },
    {
      "inputs": [],
      "name": "name",
      "outputs": [
        {
          "internalType": "string",
          "name": "",
          "type": "string"
        }
      ],
      "stateMutability": "view",
      "type": "function"
    },
    {
      "inputs": [
        {
          "internalType": "uint256",
          "name": "tokenId",
          "type": "uint256"
        }
      ],
      "name": "ownerOf",
      "outputs": [
        {
          "internalType": "address",
          "name": "",
          "type": "address"
        }
      ],
      "stateMutability": "view",
      "type": "function"
    },
    {
      "inputs": [
        {
          "internalType": "address",
          "name": "from",
          "type": "address"
        },
        {
          "internalType": "address",
          "name": "to",
          "type": "address"
        },
        {
          "internalType": "uint256",
          "name": "tokenId",
          "type": "uint256"
        }
      ],
      "name": "safeTransferFrom",
      "outputs": [],
      "stateMutability": "nonpayable",
      "type": "function"
    },
    {
      "inputs": [
        {
          "internalType": "address",
          "name": "from",
          "type": "address"
        },
        {
          "internalType": "address",
          "name": "to",
          "type": "address"
        },
        {
          "internalType": "uint256",
          "name": "tokenId",
          "type": "uint256"
        },
        {
          "internalType": "bytes",
          "name": "data",
          "type": "bytes"
        }
      ],
      "name": "safeTransferFrom",
      "outputs": [],
      "stateMutability": "nonpayable",
      "type": "function"
    },
    {
      "inputs": [],
      "name": "sayHi",
      "outputs": [
        {
          "internalType": "uint256",
          "name": "",
          "type": "uint256"
        }
      ],
      "stateMutability": "view",
      "type": "function"
    },
    {
      "inputs": [
        {
          "internalType": "address",
          "name": "operator",
          "type": "address"
        },
        {
          "internalType": "bool",
          "name": "approved",
          "type": "bool"
        }
      ],
      "name": "setApprovalForAll",
      "outputs": [],
      "stateMutability": "nonpayable",
      "type": "function"
    },
    {
      "inputs": [
        {
          "internalType": "bytes4",
          "name": "interfaceId",
          "type": "bytes4"
        }
      ],
      "name": "supportsInterface",
      "outputs": [
        {
          "internalType": "bool",
          "name": "",
          "type": "bool"
        }
      ],
      "stateMutability": "view",
      "type": "function"
    },
    {
      "inputs": [],
      "name": "symbol",
      "outputs": [
        {
          "internalType": "string",
          "name": "",
          "type": "string"
        }
      ],
      "stateMutability": "view",
      "type": "function"
    },
    {
      "inputs": [],
      "name": "tokenCount",
      "outputs": [
        {
          "internalType": "uint256",
          "name": "",
          "type": "uint256"
        }
      ],
      "stateMutability": "view",
      "type": "function"
    },
    {
      "inputs": [
        {
          "internalType": "uint256",
          "name": "tokenId",
          "type": "uint256"
        }
      ],
      "name": "tokenURI",
      "outputs": [
        {
          "internalType": "string",
          "name": "",
          "type": "string"
        }
      ],
      "stateMutability": "view",
      "type": "function"
    },
    {
      "inputs": [
        {
          "internalType": "address",
          "name": "from",
          "type": "address"
        },
        {
          "internalType": "address",
          "name": "to",
          "type": "address"
        },
        {
          "internalType": "uint256",
          "name": "tokenId",
          "type": "uint256"
        }
      ],
      "name": "transferFrom",
      "outputs": [],
      "stateMutability": "nonpayable",
      "type": "function"
    }
  ],
  "bytecode": "0x60806040523480156200001157600080fd5b50604080518082018252600d81526c456c7365747920546f6b656e7360981b60208083019182528351808501909452600384526245545960e81b908401528151919291620000629160009162000081565b5080516200007890600190602084019062000081565b50505062000164565b8280546200008f9062000127565b90600052602060002090601f016020900481019282620000b35760008555620000fe565b82601f10620000ce57805160ff1916838001178555620000fe565b82800160010185558215620000fe579182015b82811115620000fe578251825591602001919060010190620000e1565b506200010c92915062000110565b5090565b5b808211156200010c576000815560010162000111565b600181811c908216806200013c57607f821691505b602082108114156200015e57634e487b7160e01b600052602260045260246000fd5b50919050565b6115ae80620001746000396000f3fe608060405234801561001057600080fd5b50600436106101005760003560e01c80636352211e11610097578063a22cb46511610066578063a22cb46514610202578063b88d4fde14610215578063c87b56dd14610228578063e985e9c51461023b57600080fd5b80636352211e146101cc57806370a08231146101df57806395d89b41146101f25780639f181b5e146101fa57600080fd5b80630c49c36c116100d35780630c49c36c1461018257806323b872dd1461019357806342842e0e146101a657806345576f94146101b957600080fd5b806301ffc9a71461010557806306fdde031461012d578063081812fc14610142578063095ea7b31461016d575b600080fd5b610118610113366004611266565b610277565b60405190151581526020015b60405180910390f35b6101356102c9565b6040516101249190611394565b6101556101503660046112e4565b61035b565b6040516001600160a01b039091168152602001610124565b61018061017b36600461123d565b610382565b005b60015b604051908152602001610124565b6101806101a136600461114f565b61049d565b6101806101b436600461114f565b6104ce565b6101806101c736600461129e565b6104e9565b6101556101da3660046112e4565b61051c565b6101856101ed366004611103565b61057c565b610135610602565b610185610611565b610180610210366004611203565b610621565b61018061022336600461118a565b61062c565b6101356102363660046112e4565b610664565b61011861024936600461111d565b6001600160a01b03918216600090815260056020908152604080832093909416825291909152205460ff1690565b60006001600160e01b031982166380ac58cd60e01b14806102a857506001600160e01b03198216635b5e139f60e01b145b806102c357506301ffc9a760e01b6001600160e01b03198316145b92915050565b6060600080546102d8906114b6565b80601f0160208091040260200160405190810160405280929190818152602001828054610304906114b6565b80156103515780601f1061032657610100808354040283529160200191610351565b820191906000526020600020905b81548152906001019060200180831161033457829003601f168201915b5050505050905090565b600061036682610775565b506000908152600460205260409020546001600160a01b031690565b600061038d8261051c565b9050806001600160a01b0316836001600160a01b031614156104005760405162461bcd60e51b815260206004820152602160248201527f4552433732313a20617070726f76616c20746f2063757272656e74206f776e656044820152603960f91b60648201526084015b60405180910390fd5b336001600160a01b038216148061041c575061041c8133610249565b61048e5760405162461bcd60e51b815260206004820152603e60248201527f4552433732313a20617070726f76652063616c6c6572206973206e6f7420746f60448201527f6b656e206f776e6572206e6f7220617070726f76656420666f7220616c6c000060648201526084016103f7565b61049883836107d7565b505050565b6104a73382610845565b6104c35760405162461bcd60e51b81526004016103f7906113f9565b6104988383836108c3565b6104988383836040518060200160405280600081525061062c565b6104f7600780546001019055565b600061050260075490565b905061050e3382610a5f565b6105188183610ba1565b5050565b6000818152600260205260408120546001600160a01b0316806102c35760405162461bcd60e51b8152602060048201526018602482015277115490cdcc8c4e881a5b9d985b1a59081d1bdad95b88125160421b60448201526064016103f7565b60006001600160a01b0382166105e65760405162461bcd60e51b815260206004820152602960248201527f4552433732313a2061646472657373207a65726f206973206e6f7420612076616044820152683634b21037bbb732b960b91b60648201526084016103f7565b506001600160a01b031660009081526003602052604090205490565b6060600180546102d8906114b6565b600061061c60075490565b905090565b610518338383610c3b565b6106363383610845565b6106525760405162461bcd60e51b81526004016103f7906113f9565b61065e84848484610d0a565b50505050565b606061066f82610775565b60008281526006602052604081208054610688906114b6565b80601f01602080910402602001604051908101604052809291908181526020018280546106b4906114b6565b80156107015780601f106106d657610100808354040283529160200191610701565b820191906000526020600020905b8154815290600101906020018083116106e457829003601f168201915b50505050509050600061071f60408051602081019091526000815290565b9050805160001415610732575092915050565b81511561076457808260405160200161074c929190611328565b60405160208183030381529060405292505050919050565b61076d84610d3d565b949350505050565b6000818152600260205260409020546001600160a01b03166107d45760405162461bcd60e51b8152602060048201526018602482015277115490cdcc8c4e881a5b9d985b1a59081d1bdad95b88125160421b60448201526064016103f7565b50565b600081815260046020526040902080546001600160a01b0319166001600160a01b038416908117909155819061080c8261051c565b6001600160a01b03167f8c5be1e5ebec7d5bd14f71427d1e84f3dd0314c0f7b2291e5b200ac8c7c3b92560405160405180910390a45050565b6000806108518361051c565b9050806001600160a01b0316846001600160a01b0316148061089857506001600160a01b0380821660009081526005602090815260408083209388168352929052205460ff165b8061076d5750836001600160a01b03166108b18461035b565b6001600160a01b031614949350505050565b826001600160a01b03166108d68261051c565b6001600160a01b03161461093a5760405162461bcd60e51b815260206004820152602560248201527f4552433732313a207472616e736665722066726f6d20696e636f72726563742060448201526437bbb732b960d91b60648201526084016103f7565b6001600160a01b03821661099c5760405162461bcd60e51b8152602060048201526024808201527f4552433732313a207472616e7366657220746f20746865207a65726f206164646044820152637265737360e01b60648201526084016103f7565b6109a76000826107d7565b6001600160a01b03831660009081526003602052604081208054600192906109d0908490611473565b90915550506001600160a01b03821660009081526003602052604081208054600192906109fe908490611447565b909155505060008181526002602052604080822080546001600160a01b0319166001600160a01b0386811691821790925591518493918716917fddf252ad1be2c89b69c2b068fc378daa952ba7f163c4a11628f55a4df523b3ef91a4505050565b6001600160a01b038216610ab55760405162461bcd60e51b815260206004820181905260248201527f4552433732313a206d696e7420746f20746865207a65726f206164647265737360448201526064016103f7565b6000818152600260205260409020546001600160a01b031615610b1a5760405162461bcd60e51b815260206004820152601c60248201527f4552433732313a20746f6b656e20616c7265616479206d696e7465640000000060448201526064016103f7565b6001600160a01b0382166000908152600360205260408120805460019290610b43908490611447565b909155505060008181526002602052604080822080546001600160a01b0319166001600160a01b03861690811790915590518392907fddf252ad1be2c89b69c2b068fc378daa952ba7f163c4a11628f55a4df523b3ef908290a45050565b6000828152600260205260409020546001600160a01b0316610c1c5760405162461bcd60e51b815260206004820152602e60248201527f45524337323155524953746f726167653a2055524920736574206f66206e6f6e60448201526d32bc34b9ba32b73a103a37b5b2b760911b60648201526084016103f7565b6000828152600660209081526040909120825161049892840190610fd8565b816001600160a01b0316836001600160a01b03161415610c9d5760405162461bcd60e51b815260206004820152601960248201527f4552433732313a20617070726f766520746f2063616c6c65720000000000000060448201526064016103f7565b6001600160a01b03838116600081815260056020908152604080832094871680845294825291829020805460ff191686151590811790915591519182527f17307eab39ab6107e8899845ad3d59bd9653f200f220920489ca2b5937696c31910160405180910390a3505050565b610d158484846108c3565b610d2184848484610db1565b61065e5760405162461bcd60e51b81526004016103f7906113a7565b6060610d4882610775565b6000610d5f60408051602081019091526000815290565b90506000815111610d7f5760405180602001604052806000815250610daa565b80610d8984610ebe565b604051602001610d9a929190611328565b6040516020818303038152906040525b9392505050565b60006001600160a01b0384163b15610eb357604051630a85bd0160e11b81526001600160a01b0385169063150b7a0290610df5903390899088908890600401611357565b602060405180830381600087803b158015610e0f57600080fd5b505af1925050508015610e3f575060408051601f3d908101601f19168201909252610e3c91810190611282565b60015b610e99573d808015610e6d576040519150601f19603f3d011682016040523d82523d6000602084013e610e72565b606091505b508051610e915760405162461bcd60e51b81526004016103f7906113a7565b805181602001fd5b6001600160e01b031916630a85bd0160e11b14905061076d565b506001949350505050565b606081610ee25750506040805180820190915260018152600360fc1b602082015290565b8160005b8115610f0c5780610ef6816114f1565b9150610f059050600a8361145f565b9150610ee6565b60008167ffffffffffffffff811115610f3557634e487b7160e01b600052604160045260246000fd5b6040519080825280601f01601f191660200182016040528015610f5f576020820181803683370190505b5090505b841561076d57610f74600183611473565b9150610f81600a8661150c565b610f8c906030611447565b60f81b818381518110610faf57634e487b7160e01b600052603260045260246000fd5b60200101906001600160f81b031916908160001a905350610fd1600a8661145f565b9450610f63565b828054610fe4906114b6565b90600052602060002090601f016020900481019282611006576000855561104c565b82601f1061101f57805160ff191683800117855561104c565b8280016001018555821561104c579182015b8281111561104c578251825591602001919060010190611031565b5061105892915061105c565b5090565b5b80821115611058576000815560010161105d565b600067ffffffffffffffff8084111561108c5761108c61154c565b604051601f8501601f19908116603f011681019082821181831017156110b4576110b461154c565b816040528093508581528686860111156110cd57600080fd5b858560208301376000602087830101525050509392505050565b80356001600160a01b03811681146110fe57600080fd5b919050565b600060208284031215611114578081fd5b610daa826110e7565b6000806040838503121561112f578081fd5b611138836110e7565b9150611146602084016110e7565b90509250929050565b600080600060608486031215611163578081fd5b61116c846110e7565b925061117a602085016110e7565b9150604084013590509250925092565b6000806000806080858703121561119f578081fd5b6111a8856110e7565b93506111b6602086016110e7565b925060408501359150606085013567ffffffffffffffff8111156111d8578182fd5b8501601f810187136111e8578182fd5b6111f787823560208401611071565b91505092959194509250565b60008060408385031215611215578182fd5b61121e836110e7565b915060208301358015158114611232578182fd5b809150509250929050565b6000806040838503121561124f578182fd5b611258836110e7565b946020939093013593505050565b600060208284031215611277578081fd5b8135610daa81611562565b600060208284031215611293578081fd5b8151610daa81611562565b6000602082840312156112af578081fd5b813567ffffffffffffffff8111156112c5578182fd5b8201601f810184136112d5578182fd5b61076d84823560208401611071565b6000602082840312156112f5578081fd5b5035919050565b6000815180845261131481602086016020860161148a565b601f01601f19169290920160200192915050565b6000835161133a81846020880161148a565b83519083019061134e81836020880161148a565b01949350505050565b6001600160a01b038581168252841660208201526040810183905260806060820181905260009061138a908301846112fc565b9695505050505050565b602081526000610daa60208301846112fc565b60208082526032908201527f4552433732313a207472616e7366657220746f206e6f6e20455243373231526560408201527131b2b4bb32b91034b6b83632b6b2b73a32b960711b606082015260800190565b6020808252602e908201527f4552433732313a2063616c6c6572206973206e6f7420746f6b656e206f776e6560408201526d1c881b9bdc88185c1c1c9bdd995960921b606082015260800190565b6000821982111561145a5761145a611520565b500190565b60008261146e5761146e611536565b500490565b60008282101561148557611485611520565b500390565b60005b838110156114a557818101518382015260200161148d565b8381111561065e5750506000910152565b600181811c908216806114ca57607f821691505b602082108114156114eb57634e487b7160e01b600052602260045260246000fd5b50919050565b600060001982141561150557611505611520565b5060010190565b60008261151b5761151b611536565b500690565b634e487b7160e01b600052601160045260246000fd5b634e487b7160e01b600052601260045260246000fd5b634e487b7160e01b600052604160045260246000fd5b6001600160e01b0319811681146107d457600080fdfea264697066735822122009055f6f30b9fd98768dea7be428054f6fbd646bfe4567b18ca0d9f34a69905264736f6c63430008040033",
  "linkReferences": {},
  "deployedLinkReferences": {}
}